:100000000C9469000C94C2000C94C2000C94C200C1
:100010000C94C2000C94C2000C94C2000C94C20058
:100020000C94C2000C94C2000C94C2000C94C20048
:100030000C94C2000C94C2000C94C2000C94C20038
:100040000C94C2000C94C2000C94C2000C94C20028
:100050000C94C2000C94C2000C94C2000C94C20018
:100060000C94C2000C94C2000C94C2000C94C20008
:100070000C94C2000C94C2000C94C2000C94C200F8
:100080000C94C2000C94C2000C94C2000C94C200E8
:100090000C94C2000C94C2000C94C2000C94C200D8
:1000A0000C94C2000C94C2000C94C2000C94C200C8
:1000B0000C94C2000C94C2000C94C2000C94C200B8
:1000C0000C94C2000C94C2000C94C2000100010107
:1000D000800011241FBECFEFD8E0DEBFCDBFECEC17
:1000E000F0E040E017C0B591A591359125910591BB
:1000F00007FD0CC095918591EF01F92FE82F059030
:100100000D92A217B307D9F7FE0104C01D92A217E2
:10011000B307E1F7E13DF40731F70E94AC000C941E
:06012000A100F894FFCFDE
:1001260080910001811105C0479A81E0809300010A
:0C013600089588B118B8109200010895D7
:10014200EC010E94C7000E94C600CE010E94C800B6
:06015200CE010E94C40072
:100158000E94BD000E94930088EE93E00E94B500C3
:02016800F9CFCD
:10016A0020EA3FE021503109E9F70197C9F70895DC
:0A017A003F9A479810920001089583
:040184000C940000D7
:040188000E94910040
:02018C000895D4
:02018E000895D2
:020190000895D0
:00000001FF
