:100000000C9475000C947D170C947D170C947D173F
:100010000C947D170C947D170C947D170C947D1710
:100020000C947D170C947D170C947D170C947D1700
:100030000C947D170C947D170C947D170C947D17F0
:100040000C947D170C947D170C947D170C947D17E0
:100050000C947D170C947D170C947D170C947D17D0
:100060000C947D170C947D170C947D170C947D17C0
:100070000C947D170C947D170C947D170C947D17B0
:100080000C947D170C947D170C947D170C947D17A0
:100090000C947D170C947D170C947D170C947D1790
:1000A0000C947D170C947D170C947D170C947D1780
:1000B0000C947D170C947D170C947D170C947D1770
:1000C0000C947D170C947D170C947D17010003523E
:1000D00080035203BC002F0803BC03D28003D20468
:1000E0000A002F72040A0429800011241FBECFEFDA
:1000F000D8E0DEBFCDBFECECF0E040E017C0B5913A
:10010000A59135912591059107FD0CC0959185919B
:10011000EF01F92FE82F05900D92A217B307D9F739
:10012000FE0104C01D92A217B307E1F7E93EF407F0
:0E01300031F70E94880A0C942E17F894FFCF26
:10013E0000000000000000000000000000000000B1
:10014E0000000000000000000000000000000000A1
:10015E000000000000000000000000000000000091
:10016E000000000000000000000000000000000081
:10017E000000000000000000000000000000000071
:10018E0000FE7C388080387CFE000C14000C1414A9
:10019E000C00140C88CCEECC882266EE6622387CDD
:1001AE007C7C382070A8203E0804FE04082040FE07
:1001BE00402010105438101038541010808894A21B
:1001CE008080A294888040707C7040041C7C1C044B
:1001DE00000000000000009E0000000E000E00282F
:1001EE00FE28FE284852FE5222462610C8C46C92A3
:1001FE00AA44A0000A06000000384482000082448F
:10020E00380028107C102810107C101000A0300030
:10021E0000101010101000C0C00000402010080484
:10022E007CA2928A7C0084FE800084C2A2928C42C0
:10023E00828A9662302824FE204E8A8A8A727894A8
:10024E009292600602E2120E6C9292926C0C929254
:10025E00523C006C6C000000AC6C00001028448214
:10026E0000282828282800824428100402A2120CF4
:10027E006492F2827CF8242224F8FE9292926C7C94
:10028E0082828244FE82824438FE92929282FE12D2
:10029E001212027C829292F4FE101010FE0082FE68
:1002AE0082004080827E02FE10284482FE80808082
:1002BE0080FE041804FEFE081020FE7C8282827CE2
:1002CE00FE1212120C7C82A242BCFE1232528C4CD6
:1002DE00929292640202FE02027E8080807E3E40F6
:1002EE0080403E7E8070807EC6281028C60E10E0AC
:1002FE00100EC2A2928A8600FE828200040810208E
:10030E0040008282FE000804020408808080808003
:10031E00000204080040A8A8A8F0FE90888870701B
:10032E008888884070888890FE70A8A8A83010FC35
:10033E0012020410A8A8A878FE100808F00090FA7F
:10034E0080004080887A00FE205088000082FE8067
:10035E0000F808F008F0F8100808F0708888887027
:10036E00F82828281010282830F8F81008081090BF
:10037E00A8A8A840087E88804078808040F8384041
:10038E008040387880608078885020508818A0A0EF
:10039E00A07888C8A8988800106C82000000FE0023
:0B03AE000000826C10002010102010D6
:1003B900416464722E204F66667365742020203074
:1003C90020203120203220203320203420203520C5
:1003D9002036202037202038202039202041202095
:1003E900422020432020442020452020460A0D0099
:1003F9005374616E646172642043617061636974EE
:100409007920436172642064657465637465642E40
:030419000A0D00C9
:10041C00486967682043617061636974792043613E
:0F042C0072642064657465637465642E0A0D0044
:10043B00426C6F636B2073697A65207365742074EB
:0E044B006F203531322062797465730A0D001E
:1004590056657273696F6E2032205344204361726E
:0E046900642064657465637465642E0A0D007A
:1004770056657273696F6E20312053442043617251
:0E048700642064657465637465642E0A0D005C
:100495005344204361726420496E697469616C69D3
:0E04A5007A6174696F6E202E2E2E200A0D00D3
:1004B300534420496E697469616C697A6174696F28
:0C04C3006E2050726F6772616D0A0D00B0
:1004CF004E6F726D616C2E2052656164696E67208C
:0B04DF0066726F6D20425042200A0D33
:1004EA00AED580A81FD300408D14A1C8DA02818F2F
:0804FA00D9F1DB40A4A6AFFF1D
:100502005374616E646172642043617061636974E3
:030512007900006D
:1005150041434D4434312073656E74202E2E2E20B8
:0105250000D5
:10052600434D4435382073656E74202E2E2E2000E0
:10053600434D4431362073656E74202E2E2E2000D6
:0F054600486967682043617061636974790000D8
:0F055500434D44382073656E74202E2E2E2000E7
:0F056400434D44302073656E74202E2E2E2000E0
:0C057300526573706F6E7365203D2000B0
:09057F0020204F4B210A0D000061
:100588004F925F926F927F928F929F92AF92BF929B
:10059800CF92DF92EF92FF920F931F93CF93DF9347
:1005A800CDB7DEB729970FB6F894DEBF0FBECDBF23
:1005B80088E0E8E9F3E0DE01129601900D928A9551
:1005C800E1F70E947A17E82E992E8FEF809328047E
:1005D80000E021E040E866E270E08EE194E00E94ED
:1005E800F41621E040E860E270E082E194E00E94C5
:1005F800F41621E040E163E270E08EE094E00E94AE
:100608000C1740E06E2D792D85E994E00E94E414E2
:1006180040E06E2D792D88EC90E00E94E31340E0D5
:100628006E2D792D84E695E00E94E41440E06E2D4D
:10063800792D88EC90E00E94E313C12CD12C0F2E69
:10064800F1E88F2EF02D712C0F2EF0E8AF2EF3E08D
:10065800BF2EF02D01C0782C61E08EE094E00E945E
:1006680019160AE010E06FEF8CE490E00E94321651
:10067800898301501109B9F760E08EE194E00E9486
:10068800CE1560E08EE094E00E94191640E050E03C
:10069800BA0180E00E94C510F82E811136C0BE0153
:1006A8006E5F7F4F81E00E940B10882E61E08EE024
:1006B80094E00E94191661E08EE194E00E94CE1544
:1006C80040E06E2D792D83E795E00E94E41440E028
:1006D8006E2D792D88EC90E00E94E3138A811F9299
:1006E8008F93BF92AF929F92EF920E94B51640E00F
:1006F8006E2D792D88EC90E00E94E3130F900F90F7
:100708000F900F900F900F900FC061E08EE094E073
:100718000E94191661E08EE194E00E94CE1560E017
:1007280082E194E00E94CE158A818130C9F060E0B0
:100738008EE094E00E94191602E112E0AE014F5FCC
:100748005F4F6FEF8CE490E00E944215F82E015045
:100758001109A1F761E08EE094E00E94191601C02A
:10076800712C8FEFC81AD80A8110DAC2EAE0CE16C7
:10077800D10418F4711070CF872CFAE0CF16D10489
:1007880041F40F2EF3E88F2EF02D0F2EF3E87F2E75
:10079800F02DF1100FC3711007C360E08EE194E0F3
:1007A8000E94CE1540E06E2D792D85E595E00E94DA
:1007B800E41440E06E2D792D88EC90E00E94E3135C
:1007C80060E08EE094E00E9419164AEA51E060E089
:1007D80070E088E00E94C510811152C0BE016E5FB2
:1007E8007F4F85E00E940B10782E61E08EE094E048
:1007F8000E94191661E08EE194E00E94CE1540E057
:100808006E2D792D83E795E00E94E41440E06E2D6B
:10081800792D88EC90E00E94E3138E010E5F1F4F44
:100828005E0187E0A80EB11C0F2EF8E8CF2EF3E08A
:10083800DF2EF02DF80181918F011F928F93DF92A7
:10084800CF929F92EF920E94B51640E06E2D792DBF
:1008580088EC90E00E94E3130F900F900F900F9098
:100868000F900F90A016B10629F76DE088EC90E084
:100878000E948D166AE088EC90E00E948D1610C0E8
:1008880061E08EE094E00E94191661E08EE194E048
:100898000E94CE1560E082E194E00E94CE15782C8B
:1008A800772019F1F2E87F127FC289E0809328044B
:1008B80040E06E2D792D87E794E00E94E41440E033
:1008C8006E2D792D88EC90E00E94E31340E06E2DA8
:1008D800792D89EF93E00E94E41440E06E2D792D84
:1008E80088EC90E00E94E31322C282E080932804FF
:1008F80040E06E2D792D89E594E00E94E41440E0F3
:100908006E2D792D88EC90E00E94E31310C2BE0191
:100918006E5F7F4F85E00E940B1061E08EE094E0EF
:100928000E94191661E08EE194E00E94CE1540E025
:100938006E2D792D83E795E00E94E41440E06E2D3A
:10094800792D88EC90E00E94E3138E010E5F1F4F13
:100958005E0187E0A80EB11C0F2EF8E8CF2EF3E059
:10096800DF2EF02DF80181918F011F928F93DF9276
:10097800CF929F92EF920E94B51640E06E2D792D8E
:1009880088EC90E00E94E3130F900F900F900F9067
:100998000F900F90A016B10629F76DE088EC90E053
:1009A8000E948D166AE088EC90E00E948D168C817A
:1009B8008C7F8C3F09F0FAC1E9C161E08EE094E0D8
:1009C8000E94191661E08EE194E00E94CE1560E065
:1009D80082E194E00E94CE15EDC1412C512C3201E8
:1009E800689476F860E08EE194E00E94CE1540E0CD
:1009F8006E2D792D85E195E00E94E41440E06E2D7E
:100A0800792D88EC90E00E94E313C12CD12C0F2D96
:100A180060E08EE094E00E94191640E050E0BA01D0
:100A280087E30E94C510182F8111A4C1BE016E5F13
:100A38007F4F81E00E940B108A81823040F4B3011D
:100A4800A20189E20E94C510182F811107C0BE01BA
:100A58006E5F7F4F81E00E940B10102F61E08EE0E7
:100A680094E00E941916FFEFCF1ADF0A09F497C124
:100A78008A8180FF03C0112359F22FC011112DC0A4
:100A880061E08EE194E00E94CE1540E06E2D792D54
:100A980083E795E00E94E41440E06E2D792D88EC00
:100AA80090E00E94E3138A811F928F938FE893E06E
:100AB8009F938F939F92EF920E94B51640E06E2D00
:100AC800792D88EC90E00E94E3130F900F900F901F
:100AD8000F900F900F900DC019E561E08EE194E042
:100AE8000E94CE1560E082E194E00E94CE151111BB
:100AF80015C180912804823009F05CC160E08EE164
:100B080094E00E94CE1540E06E2D792D86E295E0A6
:100B18000E94E41440E06E2D792D88EC90E00E944C
:100B2800E31360E08EE094E00E94191640E050E084
:100B3800BA018AE30E94C510F82E8111DFC0BE01F8
:100B48006E5F7F4F85E00E940B1061E08EE094E0BD
:100B58000E94191661E08EE194E00E94CE1540E0F3
:100B68006E2D792D83E795E00E94E41440E06E2D08
:100B7800792D88EC90E00E94E3138E010E5F1F4FE1
:100B88005E0187E0A80EB11C0F2EF8E8CF2EF3E027
:100B9800DF2EF02DF80181918F011F928F93DF9244
:100BA800CF929F92EF920E94B51640E06E2D792D5C
:100BB80088EC90E00E94E3130F900F900F900F9035
:100BC8000F900F90A016B10629F76DE088EC90E021
:100BD8000E948D166AE088EC90E00E948D168B8149
:100BE80088230CF0CCC0807C803C89F410922804C7
:100BF80040E06E2D792D8CE194E00E94E41440E0F1
:100C08006E2D792D88EC90E00E94E313D3C089E023
:100C18008093280440E06E2D792D89EF93E00E949F
:100C2800E41440E06E2D792D88EC90E00E94E313E7
:100C380060E08EE194E00E94CE1540E06E2D792DA3
:100C480086E395E00E94E41440E06E2D792D88EC4F
:100C580090E00E94E31360E08EE094E00E94191691
:100C680040E052E060E070E080E10E94C510811130
:100C78008BC0BE016E5F7F4F81E00E940B1061E068
:100C88008EE094E00E94191661E08EE194E00E94E3
:100C9800CE1540E06E2D792D83E795E00E94E4148F
:100CA80040E06E2D792D88EC90E00E94E3138A8154
:100CB8001F928F938FE893E09F938F939F92EF9269
:100CC8000E94B51640E06E2D792D88EC90E00E94C8
:100CD800E31340E06E2D792D8BE394E00E94E41439
:100CE80040E06E2D792D88EC90E00E94E3130F9080
:100CF8000F900F900F900F900F905CC061E08EE006
:100D080094E00E94191661E08EE194E00E94CE15ED
:100D180060E082E194E00E94CE154CC0F12E4AC0FA
:100D2800FAE0CF16D10408F496CC782C26CD60E0F2
:100D38008EE194E00E94CE1540E06E2D792D86E27A
:100D480095E00E94E41440E06E2D792D88EC90E047
:100D58000E94E31360E08EE094E00E94191640E0E0
:100D680050E0BA018AE30E94C510F82E882309F4DE
:100D7800CECD23CE8A81823008F070CE60CE0F2E81
:100D8800F6E8FF2EF02D16C0F82E14C08091280426
:100D9800823009F422CE412C512C320123CE8A8193
:100DA80080FD9ACE19E56ACEF72C04C00F2EF5E81F
:100DB800FF2EF02D8F2D29960FB6F894DEBF0FBEAB
:100DC800CDBFDF91CF911F910F91FF90EF90DF90F2
:100DD800CF90BF90AF909F908F907F906F905F90D3
:040DE8004F9008958B
:100DEC00AEE0B0E0ECEFF6E00C947F154C016B013B
:100DFC001A8219828FEF9FEF9C838B831E821D8238
:100E0C0058874F833A872987A12CB12CD6016D9036
:100E1C007C90F301EA0DFB1D808181110FC0D6017E
:100E2C00ED93FC938081853209F0D3C13F01BFEF74
:100E3C006B1A7B0AF6017182608219C0853279F3D4
:100E4C00B401082E000C990B0E9467114FEFA41AE5
:100E5C00B40ADCCF8C32ACF08D32F9F489819A81F2
:100E6C0081609A8389833196D601ED93FC93D601E8
:100E7C00ED91FC9180818B3269F789819A81846034
:100E8C00F0CF803221F489819A818860EACF833255
:100E9C0051F489819A818061E4CF803321F4898176
:100EAC009A818260DECFB701C6010E9418149E831E
:100EBC008D8397FF0BC029813A81B1E02B273A83B0
:100ECC0029839195819591099E838D8389819A813E
:100EDC0080FF03C08D7F9A838983D601ED91FC91AD
:100EEC00119780818E3249F43196ED93FC93B701C2
:100EFC00C6010E9418149C838B83C6010E940415A2
:100F0C00582ED601ED91FC918081082E000C990B86
:100F1C000E945417893609F443C084F4833609F4CB
:100F2C0002C134F4853209F427C18136E1F030C1B5
:100F3C008436B1F188360CF4D9C02AC1803709F453
:100F4C009AC03CF48E3609F4BCC08F3609F461C0EB
:100F5C001FC1853709F440C0883709F476C0833740
:100F6C0009F016C1F3C0652D70E0A701CE010B96F8
:100F7C000E940000892B09F426C1D601ED91FC9149
:100F8C001197CF0101968D939C932081AE01455F03
:100F9C005F4FBE016F5F7F4FC4010E94000010C104
:100FAC00652D70E0970141E050E0CE010B960E9458
:100FBC003E0F892B09F407C1F601808191810196BE
:100FCC0091838083AE01455F5F4FBE016F5F7F4FA2
:100FDC00C4010E94CC0EF4C0652D70E0970140E076
:100FEC0050E0CE010B960E943E0F892B09F4EBC00A
:100FFC00D6018D919C91119701968D939C93AE0186
:10100C00455F5F4FBE016F5F7F4FC4010E94FA11B5
:10101C00D7C0652D70E0970140E050E0CE010B96F3
:10102C000E943E0F892B09F4CEC0F601808191817C
:10103C00019691838083AE01455F5F4FBE016F5F68
:10104C007F4FC4010E946C10BBC0652D70E09701EE
:10105C0040E050E0CE010B960E943E0F892B09F424
:10106C00B2C0D601ED91FC911197CF0101968D93F1
:10107C009C9320811CC0970140E050E060EF70E031
:10108C00CE010B960E943E0F892B09F49CC0F601F1
:10109C00808191810196918380838B859C85892B9E
:1010AC0029F420E030E044E054E084C028E7AE01AD
:1010BC00455F5F4FBE016F5F7F4FC4010E94960B6F
:1010CC007FC0A501400F511F652D70E09701CE0127
:1010DC000B960E940000892B09F475C0D6018D91E6
:1010EC009C91119701968D939C9373C0652D70E024
:1010FC00A701CE010B960E940000892B09F463C056
:10110C00D601ED91FC911197CF0101968D939C9393
:10111C002081AE01455F5F4FBE016F5F7F4FC40101
:10112C000E9400004DC0B0E85B124DC0F6018081FA
:10113C009181019691838083D701ED91FC91119758
:10114C00CF0102968D939C93808120C0B0E85B12F6
:10115C003AC0F60180819181019691838083D701F9
:10116C00ED91FC911197CF0102968D939C93408148
:10117C00518120E030E01EC0B0E85B1224C0F601C3
:10118C00208131812F5F3F4F318320838B870DC0AE
:10119C0085E28B87D6016D927C921A8219821E820F
:1011AC001D828FEF9FEF9C838B8321E030E0AE019B
:1011BC00455F5F4FBE016F5F7F4FC4010E9470148B
:1011CC008A0D9B1D07C0F601808191810196918348
:0C11DC008083C5012E96EFE00C94B61540
:1011E8002F923F924F925F926F927F928F929F922F
:1011F800AF92BF92CF92DF92EF92FF920F931F931D
:10120800CF93DF93CDB7DEB7C754D1090FB6F894A3
:10121800DEBF0FBECDBF1C018B019B0140E052E039
:1012280060E070E0CB010E944112F82E60E072E0AD
:10123800C8010E949A14F110A3C0B80180E090E0A0
:101248000E946F178D7F893E09F49EC0B80186EC15
:1012580091E00E9462166EAB7FAB88AF99AF9801A0
:1012680040E052E00E944112F82E60E072E0C801AE
:101278000E949A14B80180E090E00E946F178D7F59
:10128800893E49F440E0BE016F5F7F4F88EC90E0F3
:101298000E94E3137DC0F11075C015E01AC182E009
:1012A800F101818312E004C084E0F101818310E040
:1012B8008EA99FA9A8ADB9AD840D951DA61DB71D12
:1012C800F10186879787A08BB18BC286D386E48687
:1012D800F58681818230E1F44DA928962EAD3FAD87
:1012E8002897429FC001439F900D1124EBA9FCA9A8
:1012F8008E0F9F1F2EA93FA948AD59AD280F391F42
:10130800411D511DF101268337834087518717C03E
:1013180026962CAD3DAD4EAD5FAD269722503109D6
:1013280041095109C501B4010E94C716C60ED71E4E
:10133800E81EF91EF101C682D782E086F186F10126
:1013480081858F9380858F9387818F9386818F93F3
:1013580080EA93E09F938F939E012F5F3F4F79011F
:101368003F932F930E94B51640E0B70188EC90E0B8
:101378000E94E3130FB6F894DEBF0FBECDBFA9C01D
:1013880016E0A7C016E0A5C01EAA1FAA18AE19AE7F
:1013980040E06FEC74E088EC90E00E94E313B80141
:1013A8008BE090E00E9418177C01B8018DE090E076
:1013B8000E946F17B82EF101F582E4828083B8018C
:1013C8008EE090E00E9418179CAB8BABB80180E1CF
:1013D80090E00E946F178DABB80183E190E00E9406
:1013E8001817B80180E290E00E9462166AAF7BAFDE
:1013F8008CAF9DAFB80181E190E00E9418176C0195
:10140800B80186E190E00E94181728969FAF8EAF2A
:101418002897B80184E290E00E94621622966CAF89
:101428007DAF8EAF9FAF2297B8018CE290E00E940B
:10143800621626966CAF7DAF8EAF9FAF2697C6011A
:10144800880F991F82959295907F9827807F98277B
:10145800970121503109820F931FB7010E94A116ED
:101468006B01E12CF12CF101C28AD38AE48AF58A56
:101478002BA93CA92901612C712C3DA9A32FB0E00F
:1014880022962CAD3DAD4EAD5FAD22970E9423173D
:10149800DC01CB01840D951DA61DB71DC80ED91EF4
:1014A800EA1EFB1E8B2C912CA12CB12C6AAD7BADB6
:1014B8008CAD9DAD6C197D098E099F09A50194011C
:1014C8000E94C214253F3F4F4105510508F4E7CE5D
:1014D800EBCE812FC95BDF4F0FB6F894DEBF0FBE8E
:1014E800CDBFDF91CF911F910F91FF90EF90DF90CB
:1014F800CF90BF90AF909F908F907F906F905F90AC
:081508004F903F902F900895D1
:10151000CF93DF93CDB7DEB727970FB6F894DEBF32
:101520000FBECDBF00E021E040E866E270E08EE152
:1015300094E00E94F41640E855E260E070E088EC28
:1015400090E00E94AB130E947A17182F092F40E0F9
:10155000682F792F83EB94E00E94E41440E0612F20
:10156000702F88EC90E00E94E31360E08EE194E03D
:101570000E94CE152FEF33EC89E02150304080409F
:10158000E1F700C0000061E08EE194E00E94CE151A
:1015900040E85AE166E070E08CE490E00E94200DA3
:1015A0009FEF23ED30E3915020403040E1F700C041
:1015B0000000882331F060E08AE194E00E94CE15BB
:1015C000FFCF8CE490E00E94B31160EB8CE490E0DC
:1015D0000E94461440E0612F702F83EB94E00E943C
:1015E000E41447E0612F702F8CE490E00E94831296
:1015F0000E94C402882331F060E086E194E00E94FA
:10160000CE15FFCF40E856E968E970E08CE490E041
:101610000E94200D40E0612F702F8FE795E00E941F
:10162000E41440E0612F702F8CE490E00E9483125C
:1016300061EB8CE490E00E94981561EB8CE490E003
:101640000E9446140E947717893079F440E0612F98
:10165000702F82E095E00E94E41440E0612F702F2B
:101660008CE490E00E9483120EC040E0612F702F46
:1016700086E495E00E94E41440E0612F702F8CE432
:1016800090E00E94831287E0E9E7F3E0DE01119623
:1016900001900D928A95E1F7BE016F5F7F4F86E062
:1016A00090E00E946F17BE016F5F7F4F84E090E073
:1016B0000E941817BE016F5F7F4F80E090E00E948C
:1016C00062160E94741762E071E00E94F4080F2E07
:1016D000F1E7EF2EF3E0FF2EF02D40E0612F702FA9
:1016E00082E593E00E94E41440E0612F702F88ECC3
:1016F00090E00E94E31388EC90E00E94BB0D9F9362
:101700008F937F936F93FF92EF920F931F930E949B
:10171000B51640E0612F702F88EC90E00E94E31333
:0C1720000FB6F894DEBF0FBECDBFD7CFD0
:10172C00AFE0B0E0ECE9FBE00C947C151C016B0124
:10173C005A8349832B83FB0182819381848095801A
:10174C0000811181A680B78097FD02C00D7F02C079
:10175C0081E090E0E981FA81408051806280738061
:10176C009801207133273D832C83740104FF08C03A
:10177C00411451046104710419F032E0E31AF108C8
:10178C00F801E870FF27FF83EE8303FF03C0F1E04D
:10179C00EF1AF108F6010084F185E02D3197FF87EF
:1017AC00EE87EA0DFB1D10829C012E193F0939872B
:1017BC002887C801827099279B878A87EB818E2F97
:1017CC00EE0F990B9C01215431093D872C872E85F6
:1017DC003F852230310530F48C819D81892B09F0B5
:1017EC0042C05CC0411451046104710461F18E85E6
:1017FC009F8501979F878E87C2018F7099278A30AA
:10180C00910514F4C09602C0895A9F4FEC85FD8552
:10181C007A9748F49C012062215631092A3131050E
:10182C0010F40E944B17EE85FF85EA0DFB1D80839B
:10183C00F1E0EF1AF10884E076946794579447949A
:10184C008A95D1F7C4CF888599858E0D9F1D181662
:10185C0019066CF21E141F040CF0BECFEA85FB8532
:10186C00EF2B29F6B9CFE981FA8180819181A28190
:10187C00B381892B8A2B8B2B89F0EE85FF85EA0DA2
:10188C00FB1D31972B8120838E859F8502979F8727
:10189C008E87FC01EA0DFB1D80E38083EE81FF81C6
:1018AC00EF2B59F02E853F85215031093F872E872C
:1018BC00F901EA0DFB1D80E28083F601408551851C
:1018CC00415051092E853F85421B530BB9016A0DBE
:1018DC007B1D9401C1010E943A139C01F10180818E
:1018EC00918190FF06C0F601828193818217930744
:0C18FC000CF4C9012F96E2E10C94B31526
:10190800AF92BF92CF92DF92FF920F931F93CF9324
:10191800DF930F92CDB7DEB76C015B0101E010E0F9
:10192800AE014F5F5F4F6FEF8CE490E00E9442156D
:10193800F82E8981882344F40115110529F00F5FD9
:101948001F4FFF2069F364C0F11062C0012B09F436
:1019580047C081114AC001E010E0AE014F5F5F4F00
:101968006FEF8CE490E00E94421599819F3F61F4EB
:101978000115110549F00F5F1F4F882371F30F2ED2
:10198800F7E8FF2EF02D44C0811134C0012BB9F1C6
:101998009E3FD1F5C114D10491F08501CA0CDB1C1E
:1019A800AE014F5F5F4F6FEF8CE490E00E944215ED
:1019B8008981F80181938F01EC15FD0589F7AE0146
:1019C8004F5F5F4F6FEF8CE490E00E944215AE01CD
:1019D8004F5F5F4F6FEF8CE490E00E94421518C094
:1019E8000F2EF1E8FF2EF02D13C00F2EF3E8FF2E77
:1019F800F02D0EC00F2EF7E8FF2EF02D09C00F2E88
:101A0800F8E8FF2EF02D04C00F2EF4E8FF2EF02D7D
:101A1800AE014F5F5F4F6FEF8CE490E00E9442157C
:101A28008F2D0F90DF91CF911F910F91FF90DF9035
:081A3800CF90BF90AF9008951C
:101A4000CF92DF92EF92FF920F931F93CF93DF938A
:101A500000D000D000D0CDB7DEB78C016A017B0189
:101A60008C34910589F421E040E263E270E0CE011C
:101A700001960E94241520E040E863E270E0CE0168
:101A800004960E9424155BC08C3A910509F053C05E
:101A900021E048E06CE270E0CE0101960E9424153E
:101AA00020E040E869E270E0CE0104960E9424152F
:101AB00046C080E5F801808381E0818380E04CC0EE
:101AC000833031F480E5F8018083118280E044C0E6
:101AD0008BEF820F833038F481E5F801808381E059
:101AE000818380E039C087EF820F873030F481E551
:101AF000F8018083118280E02FC08FEE820F8F303B
:101B000038F482E5F801808381E0818380E024C09D
:101B10008FED820F8F3130F482E5F80180831182DE
:101B200080E01AC021542F3340F483E5F80180830C
:101B3000118280E011C08EE00FC08FE00DC060E028
:101B400074E284EF90E0A70196010E94C214822FF4
:101B5000223008F0B5CFADCF26960FB6F894DEBF91
:101B60000FBECDBFDF91CF911F910F91FF90EF90EE
:061B7000DF90CF90089504
:101B76008F929F92AF92BF92EF92FF920F931F9315
:101B8600CF93DF93CDB7DEB72B970FB6F894DEBFB2
:101B96000FBECDBF7C01FE013196CE010C9611928F
:101BA600E817F907E1F700E0C7010E946917182F47
:101BB60080ED810F8A3068F4612FC7010E948D166F
:101BC600E1E0F0E0EC0FFD1FE00FF11D10830F5F69
:101BD60045C0183011F01F37A9F40150E1E0F0E0DC
:101BE600EC0FFD1FE00FF11D108268E0C7010E9497
:101BF6008D1660E2C7010E948D1668E0C7010E943B
:101C06008D162CC01D3021F01A3011F01E3231F520
:101C1600CE0101960E9417114B015C016DE0C701D0
:101C26000E948D166AE0C7010E948D160A3071F473
:101C3600CE0101960E9417114B015C016DE0C701B0
:101C46000E948D166AE0C7010E948D168FEF8816D6
:101C56009806A806B80609F4A7CF04C00A3009F00A
:101C6600A3CFE6CFC501B4012B960FB6F894DEBF1D
:101C76000FBECDBFDF91CF911F910F91FF90EF90D7
:0A1C8600BF90AF909F908F900895DB
:101C9000AF92BF92CF92DF92EF92FF920F931F937A
:101CA000CF93DF93EC018B010E947A17E82EF92E77
:101CB000C00FD11FDF93CF9388EE93E09F938F9354
:101CC000FF92EF920E94B51640E06E2D7F2D88ECBA
:101CD00090E00E94E3131F930F938CEE93E09F9389
:101CE0008F93FF92EF920E94B51640E06E2D7F2DEC
:101CF00088EC90E00E94E3138E016E01E0E1CE0ECD
:101D0000D11C8DB79EB70C960FB6F8949EBF0FBE30
:101D10008DBF0F2EF6EFAF2EF3E0BF2EF02D899181
:101D20001F928F93BF92AF92FF92EF920E94B516CF
:101D300040E06E2D7F2D88EC90E00E94E3130F9021
:101D40000F900F900F900F900F90CC16DD0639F783
:101D5000F80161918F0180EE860F803608F06EE207
:101D600088EC90E00E948D160C151D0589F76DE03A
:101D700088EC90E00E948D166AE088EC90E00E946A
:101D80008D16DF91CF911F910F91FF90EF90DF9013
:081D9000CF90BF90AF900895C1
:101D9800A2E0B0E0E2EDFEE00C947C153C016B01A2
:101DA800FB0122813381A480B580808191819A834F
:101DB800898386809780FA01208031804280538011
:101DC800B201A10157FE07C044275527BA0142199D
:101DD80053096409750937FD03C08D7F9A83898388
:101DE800950157FC05C0898182FD02C083FF02C0AE
:101DF80021503109CE0101967C010AE010E0C601AC
:101E08000E94A60F57FC03C0298122FF0AC0019730
:101E1800F401E80FF91F57FC02C02BE209C02DE2BC
:101E280007C023FF06C00197F401E80FF91F20E25D
:101E3800208309811A81F601408551854150510955
:101E4800481B590BB401680F791F9501C3010E9403
:101E58003A139C01F3018081918190FF06C0F6013D
:101E680082819381821793070CF4C9012296E2E1DB
:041E78000C94B315FE
:101E7C00CF93DF93DC01F90168387105F1F05CF464
:101E8C006138710561F164387105A1F16038710533
:101E9C0009F051C02FC0603C710509F441C0603F8E
:101EAC007105F1F1603A710509F045C0C081D1812D
:101EBC00CE0102969183808325C0C081D181CE0151
:101ECC00029691838083452B39F04881042E000CB7
:101EDC00550B660B770B1CC0488150E029C0C081A4
:101EEC00D181CE01049691838083488159816A8186
:101EFC007B810EC0C081D181CE01029691838083FB
:101F0C00452BA1F048815981052E000C660B770BEF
:101F1C004D935D936D937C93139781E090E00DC08E
:101F2C00C081D181CE0102969183808348815981F1
:101F3C0060E070E0EDCF80E090E0DF91CF9108950C
:101F4C00A0E0B0E0ECEAFFE00C947E15DC01280187
:101F5C001696AD90BC901797F701808191811296DF
:101F6C00ED91FC9113971896CD91DC9119972197CF
:101F7C00F7FF02C0E1E0F0E0CA0DDB1D1882690139
:101F8C00A1E0B0E08F01021B130B4C01F2E08F2299
:101F9C009924052C000C66087708CE018A199B0938
:101FAC00CA15DB0519F1411551056105710589F05B
:101FBC00CB01BA01A30192010E94C214CA01A62F3F
:101FCC00B72F605D6A9341E0C41AD108A901BC0126
:101FDC00E4CF98012C0D3D1D121613064CF31C1466
:101FEC001D0434F48114910419F702C080E090E0D0
:101FFC00AB2B31F4F701208131812F7E318320838B
:0A200C00CDB7DEB7E0E10C94B51586
:10201600BF92CF92DF92EF92FF920F931F93CF93CF
:10202600DF930F92CDB7DEB7B82E7B0111E0AE017C
:102036004F5F5F4F6FEF8CE490E00E944215082FD0
:102046008981882324F0982F9E709E3031F41123C5
:1020560021F01F5F002359F328C0011126C0112368
:1020660009F1F70180838230F8F4F1E0FB15E8F41A
:1020760067018FEFC81AD80A8EEF8B0D90E0029693
:10208600E80EF91EAE014F5F5F4F6FEF8CE490E0F4
:102096000E9442158981F60181936F01EE15FF05B5
:1020A60089F703C001E801C003E8AE014F5F5F4F47
:1020B6006FEF8CE490E00E944215802F0F90DF9125
:1020C600CF911F910F91FF90EF90DF90CF90BF902F
:0220D60008956B
:1020D800A2E0B0E0E2E7F0E10C9480154C016B015E
:1020E800FB012281338164807580808191819A838C
:1020F8008983A680B78037FD03C08D7F9A83898343
:10210800FA014081518162817381CE0101967C017F
:1021180008E010E09301C6010E94A60F298124FF60
:1021280006C00197F501E80FF91F20E320832981F4
:1021380023FF06C00197F501E80FF91F20E220836D
:1021480009811A81F6014085518541505109481B82
:10215800590BB501680F791F9301C4010E943A1306
:102168009C01F4018081918190FF06C0F601828173
:102178009381821793070CF4C9012296EEE00C9420
:02218800B71589
:10218A00CF92DF92EF92FF92CF938034F0F56A01FB
:10219A007B01C82F682F60648CE490E00E9432169D
:1021AA00811137C06F2D7727882799278CE490E013
:1021BA000E94321681112FC06E2D8CE490E00E948D
:1021CA003216811126C0EE24FF2499278F2D7E2DE9
:1021DA006D2D8CE490E00E94321681111CC06C2D8A
:1021EA008CE490E00E943216811111C0CC2321F0B8
:1021FA00C83021F061E003C065E901C067E88CE4FA
:10220A0090E00E94321680E007C082E805C080E0B4
:10221A0003C087E801C087E8CF91FF90EF90DF9075
:04222A00CF900895B4
:10222E00A0E0B0E0EDE1F1E10C948615AC01FA010D
:10223E0090814F5F5F4F9032D1F3292F092E000C02
:10224E00330B295031092530310588F39B3271F556
:10225E0000E010E0319602C000E010E020E030E037
:10226E00A901C1910C2E000CDD0BE097CA30D105EF
:10227E0078F4AAE0B0E00E9423176E01DD0FEE089D
:10228E00FF089B01AC012C193D094E095F09E9CFEE
:10229E000115110541F466277727CB01621B730BDD
:1022AE00840B950B08C0CA01B90105C09D32A1F679
:1022BE0001E010E0CFCFCDB7DEB7E8E00C94BD154E
:1022CE000F931F93CF93DF93DB01109719F48FEFCA
:1022DE009FEF3DC02D913C91119730FF25C0169672
:1022EE004D915C91179714962D913C91159742172D
:1022FE00530778F41296ED91FC9113978083129602
:10230E002D913C9113972F5F3F4F13963C932E9335
:10231E00129716962D913C9117972F5F3F4F179658
:10232E003C932E93169713C01C96ED91FC911D971E
:10233E00309769F2EB01092F182F0995892B39F681
:10234E008E819F8101969F838E83812F902FDF91A7
:08235E00CF911F910F9108952A
:10236600EF92FF920F931F93CF937C010E94391730
:102376000E9442170E94001780E00E94E71584EF32
:1023860091E00197F1F781E00E94E71580E00E9455
:102396000016EAEEF4E0C491CF3F91F00BEE14E0A4
:1023A60080E00E9463176C2FC7010E94321681E0FD
:1023B6000E946317F801C4910F5F1F4FCF3F81F74B
:1023C60080E00E94631760E4C7010E94321681E034
:1023D6000E946317C7010E94781660EBC7010E942E
:0E23E6004614CF911F910F91FF90EF90089534
:1023F400A2E0B0E0E0E0F2E10C9480155C016B0136
:10240400FB012281338184809580808191819A832C
:1024140089836680778037FD03C08D7F9A838983A3
:10242400FA014081518162817381CE0101967C0160
:102434000AE010E09401C6010E94A60F09811A81E6
:10244400F6014085518541505109481B590BB30190
:10245400680F791F9401C5010E943A139C01F5018C
:102464008081918190FF06C0F60182819381821759
:0E24740093070CF4C9012296EEE00C94B71504
:10248200BF92CF92DF92EF92FF920F931F93CF935F
:10249200DF936B017C01EA0189010E947717B82E54
:1024A20060E08EE094E00E941916B701A60104C014
:1024B200440F551F661F771FBA94D2F781E10E941D
:1024C200C51081110EC0B801CE010E94840CC82F24
:1024D20061E08EE094E00E941916CC2341F0C0EF37
:1024E20006C061E08EE094E00E941916C0EF8C2FC6
:1024F200DF91CF911F910F91FF90EF90DF90CF90DE
:04250200BF900895E9
:10250600CF92DF92EF92FF920F931F93CF937C01AE
:102516008B01442331F0C42ED12C1C141D04ACF0C5
:1025260028C0FB016081662321F1C0E060311CF008
:10253600C7010E947313CF5FF801EC0FF11DC7FDB1
:10254600FA9560816111F2CF14C0C0E0F801EC0F7A
:10255600F11DC7FDFA95608160311CF0C7010E942C
:102566007313CF5F8C2F0C2E000C990B8C159D05C9
:102576006CF3CF911F910F91FF90EF90DF90CF906A
:022586000895B6
:10258800A2E8B0E0EAECF2E10C9482155C014A01A1
:10259800CF57DF4F79836883C158D040C12CD12CE5
:1025A800CF57DF4FE881F981C158D0408081882317
:1025B800E9F07401860120E830E0AE014F5F5F4F1B
:1025C800BE016F577F4FC5010E94F6068C0D9D1DF9
:1025D8008C159D054CF48FE490E090930101809355
:1025E80000018FEF9FEF03C06C01DACFC601CE5711
:0825F800DF4FECE00C94B91573
:10260000A0E1B0E0E6E0F3E10C948815FB01BA012B
:10261000AE014F5F5F4F7A0140E1D7011D924A95AD
:10262000E9F742E051E05A8349839C838B83F7FFAB
:1026300009C08FE490E090930101809300018FEF37
:102640009FEF14C0A9018C013197FE83ED83C70170
:102650000E944A164F8158852D813E8142175307AB
:1026600008F49A01F801E20FF31F10826096E6E089
:042670000C94BF15F2
:10267400A0E0B0E0E0E4F3E10C9482156C015B01AE
:102684007A01E901480181E08822992400FD03C010
:102694004217530750F0A701B501C6010E945F1508
:1026A400EC16FD0610F0C70117C08E010E191F09A4
:1026B4000115110541F0B60180E290E00E94671116
:1026C40001501109F5CF8114910429F4A701B50132
:1026D400C6010E945F15CE01CDB7DEB7ECE00C94C5
:0226E400B91526
:1026E600EF92FF920F931F93CF93DF937C01C62F38
:1026F60081E00E9400166C2F70E0EB01CC0FDD1F0D
:10270600CC0FDD1FC60FD71FC25CDE4F15E0FE01E2
:10271600049180E00E946317602FC7010E94321661
:1027260081E00E946317115021961111F0CF80E0CD
:102736000E94631760E0C7010E94321681E00E9482
:102746006317DF91CF911F910F91FF90EF9008953E
:10275600CF93DF93EC011982DB01CA0180589B47B6
:10276600A14EBF4F880F991FAA1FBB1F880F991F25
:10277600AA1FBB1F880F991FAA1FBB1F440F551FF7
:10278600661F771F440F551F661F771F9A01AB01FF
:10279600220F331F441F551F220F331F441F551F7F
:1027A600BC01CD010E94C214215031093D832C8306
:1027B600188286E08A8388E18983DF91CF91089524
:1027C600CF92DF92EF92FF920F931F93CF93DF93F7
:1027D6008C016B01411110C0FB0160816623E1F0A1
:1027E600C0E0C8010E948D16CF5FF601EC0FF11D07
:1027F60060816111F6CF10C0EB014150E42EF12C3F
:10280600FFEFEF1AFF0AE60EF71E6991C8010E9454
:102816008D16EC16FD06C9F7DF91CF911F910F912A
:0A282600FF90EF90DF90CF9008952F
:10283000DC01ED91FC91119780818A3221F080E0DA
:1028400090E03AE00EC03196ED93FC93DB01ED9100
:10285000FC911197CF0102968D939C938081918179
:102860000895ED91FC911197208120532A3068F44E
:10287000389FA001399F500D1124CA01820F911D6C
:0C28800031961196FC93EE93ECCF089576
:10288C001F93CF93DF93EC01162F80E00E9400166C
:10289C0080E00E946317612FCE010E94321681E006
:1028AC000E94631780E00E94631760E0CE010E94D3
:1028BC00321681E00E94631780E00E94631760E18A
:1028CC00CE010E94321681E00E946317DF91CF91F6
:0428DC001F910895AB
:1028E000A0E0B0E0E6E7F4E10C9484157C01FB0184
:1028F000EA01C901A280B380C480D5800081118122
:10290000209711F4CDEFD3E0009719F4CE010E9487
:10291000E616B7FC04C0A816B90608F4C50196016E
:10292000AC01BE01C7010E943A13CDB7DEB7EAE0A1
:042930000C94BB1533
:10293400EF92FF920F931F93CF93DF937C018B0150
:102944000E947A17EC0140E0BC0189EB93E00E94FD
:10295400E41440E0BE0188EC90E00E94E313C0E080
:10296400D0E0BE01C7010E94480E6096C017D1078F
:10297400C0F3DF91CF911F910F91FF90EF900895D5
:10298400A1E21A2EAA1BBB1BFD010DC0AA1FBB1F6F
:10299400EE1FFF1FA217B307E407F50720F0A21BE1
:1029A400B30BE40BF50B661F771F881F991F1A944E
:1029B40069F760957095809590959B01AC01BD0178
:0429C400CF010895A2
:1029C80041110EC0242F30E0FC01E20FF31FE49107
:1029D800DB01A20FB31FEC934F5FE111F3CF0EC0E1
:1029E800FC01DB018FEF840F90E00196680F791FDF
:1029F80084918D933196A617B707D1F7842F089540
:102A0800CF93DF93EC0190E0E92FF0E0EE0FFF1F8A
:102A1800EE52FC4F8081811102C081810EC0A881D5
:102A2800B9812C91821305C091811196B983A8832D
:102A380001C09F5F9B3040F3892FDF91CF910895AC
:102A4800FC01718360834283222341F0DB011296EB
:102A58008C911297842B12968C9309C0DB011296E5
:102A68008C911297942F9095892312968C930190AC
:0C2A7800F081E02D8181482B41830895FE
:102A8400FC01628390E021819F5F22231CF091115D
:102A9400FACF0EC0992361F026FD05C08281FA01A8
:102AA400808380E008958FEFFA01808380EC08959D
:0A2AB4008FEFFA01808380E8089597
:102ABE00A0E0B0E0E5E6F5E10C9486156C01EB01C3
:102ACE008A017B01E40EF51ECE15DF0541F08991DA
:102ADE00B601082E000C990B0E946711F5CFC801A4
:0A2AEE00CDB7DEB7E8E00C94BD158B
:102AF8002F923F924F925F926F927F928F929F9206
:102B0800AF92BF92CF92DF92EF92FF920F931F93F3
:102B1800CF93DF93CDB7DEB7CA1BDB0B0FB6F894A4
:082B2800DEBF0FBECDBF099412
:102B30000F931F93CF938C010E94461481E00E9453
:102B40000016C0E080E00E94631760E0C8010E94A8
:102B5000321681E00E946317CF5FC03899F7CF919A
:062B60001F910F91089582
:102B66002A88398848885F846E847D848C849B8417
:102B7600AA84B984C884DF80EE80FD800C811B8125
:102B8600AA81B981CE0FD11D0FB6F894DEBF0FBE54
:062B9600CDBFED01089522
:102B9C00FC01838186130BC0A081B18112969C919C
:102BAC00129782818095892312968C930895A08127
:102BBC00B18112969C9112978281892B12968C93DB
:022BCC0008956A
:102BCE0081110CC0A5E2B4E0ED91FC9111979281B8
:102BDE0012968C918095892382830895A5E2B4E0A4
:102BEE00ED91FC911197928112968C91892B828393
:022BFE00089538
:102C000081110CC0A2E2B4E0ED91FC911197928188
:102C100012968C918095892382830895A2E2B4E074
:102C2000ED91FC911197928112968C91892B828360
:022C3000089505
:102C3200FC01838186130BC0A081B18112969C9105
:102C4200129782818095892312968C930895A08190
:102C5200B18112969C9112978281892B12968C9344
:022C62000895D3
:102C6400FC01628320E030E091812F5F3F4F992384
:102C74002CF021153105C1F780E80895232B21F0AC
:102C840096FF04C080EC089580E8089580E00895DC
:102C9400A2E0B0E0E0E5F6E10C948A158C015A83D9
:102CA4004983AE014F5F5F4F0E94C412F801208137
:102CB40024FF02C08FEF9FEF2296E4E00C94C1152D
:102CC400FC013496E60FF71F9B01280F391F60E0C3
:102CD40070E0CB01B82FA72F962F88274291BC0113
:0C2CE400CD01642BE217F307A9F7089557
:102CF000CF93DF93EC0160EB0E94981561EBCE015E
:102D00000E94981562EBCE010E94981563EBCE01EC
:0A2D10000E949815DF91CF910895FD
:102D1A00FC0120E030E090812F5F3F4F95FD05C018
:102D2A0021153105C1F780E90895232B19F066832F
:082D3A0080E0089580E908958E
:102D4200AA1BBB1B51E107C0AA1FBB1FA617B707CF
:102D520010F0A61BB70B881F991F5A95A9F78095EB
:082D62009095BC01CD0108951C
:102D6A00A0E0B0E0EBEBF6E10C948C15AE01475F06
:102D7A005F4F6F8178858D819E810E945C17E2E0AA
:042D8A000C94C315CD
:102D8E00DB018F939F930E942317BF91AF91A29F58
:102D9E00800D911DA39F900DB29F900D112408954B
:102DAE00A29FB001B39FC001A39F700D811D11247E
:0E2DBE00911DB29F700D811D1124911D08956D
:102DCC00FC01AF014F5F5F4F2081222311F0FA010C
:0C2DDC00F8CF9F01281B390BC901089596
:102DE8000F93CF93DF93EC0120270E9424150B83C8
:082DF800DF91CF910F910895C6
:102E00000F9300E021E041E063E270E08AE094E0AB
:082E10000E940C170F910895B8
:102E18000F93CF93DF93EC0120270E9424150B8397
:082E2800DF91CF910F91089595
:102E3000FB01E80FF91F9181892F90E0982F8827D7
:062E40002081822B0895A1
:102E46000E94D716A59F900DB49F900DA49F800D4C
:062E5600911D11240895F6
:102E5C00EC010E9482170E948117CE010E948317F9
:062E6C00CE010E947F1759
:102E720020E040E869E270E085E294E00E942415D7
:022E82000895B1
:102E840021E040E460E270E082E294E00E942415D4
:022E940008959F
:102E96009C01215631092A31310510F48F75992785
:022EA60008958D
:102EA8009C01215431092A31310508F480620895C2
:0E2EB8009A01AB016FEF7FE70E9400130895AF
:0C2EC600682F8AE094E00E94191608951D
:0C2ED200FC0190819923ECF786810895A3
:0A2EDE00860F971FFC018081089504
:062EE8008CEB93E008955D
:062EEE0080912804089504
:062EF40082E093E0089566
:042EFA000C94000034
:042EFE000E949D0091
:022F0200089530
:022F040008952E
:022F060008952C
:102F0800456E746572206465736972656420656EC8
:102F1800747279206E756D626572203E3A330020B6
:0E2F2800256C75200A0D000102030405060742
:102F360025322E32580A0D0025322E325820002511
:102F4600322E3258200A0D00FFFFFFFFFFFFFFFF62
:102F56004669727374526F6F744469725365632065
:0C2F660069733A203078256C580A0D0081
:102F720068076C094C836A9074A07AC000806888E4
:062F820000846C82008156
:102F880025702000307825342E3458202000253232
:052F98002E325820005C
:072F9D00286E756C6C290021
:062FA400286E696C290093
:00000001FF
