:100000000C946F000C94D0090C94D0090C94D00976
:100010000C94D0090C94D0090C94D0090C94D009FC
:100020000C94D0090C94D0090C94D0090C94D009EC
:100030000C94D0090C94D0090C94D0090C94D009DC
:100040000C94D0090C94D0090C94D0090C94D009CC
:100050000C94D0090C94D0090C94D0090C94D009BC
:100060000C94D0090C94D0090C94D0090C94D009AC
:100070000C94D0090C94D0090C94D0090C94D0099C
:100080000C94D0090C94D0090C94D0090C94D0098C
:100090000C94D0090C94D0090C94D0090C94D0097C
:1000A0000C94D0090C94D0090C94D0090C94D0096C
:1000B0000C94D0090C94D0090C94D0090C94D0095C
:1000C0000C94D0090C94D0090C94D0090100015271
:1000D00080015201BC0013AE01BC01C0800011249C
:1000E0001FBECFEFD8E0DEBFCDBFECECF0E040E0CC
:1000F00017C0B591A59135912591059107FD0CC0CB
:1001000095918591EF01F92FE82F05900D92A21797
:10011000B307D9F7FE0104C01D92A217B307E1F798
:10012000ED3DF40731F70E9470050C94AA09F8948C
:02013000FFCFFF
:10013200416464722E204F666673657420202030FD
:10014200202031202032202033202034202035204E
:10015200203620203720203820203920204120201E
:10016200422020432020442020452020460A0D0022
:0F01720048656C6C6F20576F726C64210A0D002A
:10018200AEE0B0E0E7ECF0E00C9419094C016B0131
:100192001A8219828FEF9FEF9C838B831E821D82AE
:1001A20058874F833A872987A12CB12CD6016D90AD
:1001B2007C90F301EA0DFB1D808181110FC0D601F5
:1001C200ED93FC938081853209F0D3C13F01BFEFEB
:1001D2006B1A7B0AF6017182608219C0853279F34B
:1001E200B401082E000C990B0E9428064FEFA41AA6
:1001F200B40ADCCF8C32ACF08D32F9F489819A8169
:1002020081609A8389833196D601ED93FC93D6015E
:10021200ED91FC9180818B3269F789819A818460AA
:10022200F0CF803221F489819A818860EACF8332CB
:1002320051F489819A818061E4CF803321F48981EC
:100242009A818260DECFB701C6010E94CD079E83EC
:100252008D8397FF0BC029813A81B1E02B273A8326
:1002620029839195819591099E838D8389819A81B4
:1002720080FF03C08D7F9A838983D601ED91FC9123
:10028200119780818E3249F43196ED93FC93B70138
:10029200C6010E94CD079C838B83C6010E94BB08C6
:1002A200582ED601ED91FC918081082E000C990BFD
:1002B2000E94BE09893609F443C084F4833609F4E6
:1002C20002C134F4853209F427C18136E1F030C12C
:1002D2008436B1F188360CF4D9C02AC1803709F4CA
:1002E2009AC03CF48E3609F4BCC08F3609F461C062
:1002F2001FC1853709F440C0883709F476C08337B7
:1003020009F016C1F3C0652D70E0A701CE010B966E
:100312000E940000892B09F426C1D601ED91FC91BF
:100322001197CF0101968D939C932081AE01455F79
:100332005F4FBE016F5F7F4FC4010E94000010C17A
:10034200652D70E0970141E050E0CE010B960E94CE
:10035200A304892B09F407C1F601808191810196DA
:1003620091838083AE01455F5F4FBE016F5F7F4F18
:10037200C4010E943104F4C0652D70E0970140E091
:1003820050E0CE010B960E94A304892B09F4EBC026
:10039200D6018D919C91119701968D939C93AE01FC
:1003A200455F5F4FBE016F5F7F4FC4010E947406BD
:1003B200D7C0652D70E0970140E050E0CE010B966A
:1003C2000E94A304892B09F4CEC0F6018081918199
:1003D200019691838083AE01455F5F4FBE016F5FDF
:1003E2007F4FC4010E94CF05BBC0652D70E097010D
:1003F20040E050E0CE010B960E94A304892B09F441
:10040200B2C0D601ED91FC911197CF0101968D9367
:100412009C9320811CC0970140E050E060EF70E0A7
:10042200CE010B960E94A304892B09F49CC0F6010D
:10043200808191810196918380838B859C85892B14
:1004420029F420E030E046EB51E084C028E7AE0119
:10045200455F5F4FBE016F5F7F4FC4010E94BF02C5
:100462007FC0A501400F511F652D70E09701CE019D
:100472000B960E940000892B09F475C0D6018D915C
:100482009C91119701968D939C9373C0652D70E09A
:10049200A701CE010B960E940000892B09F463C0CC
:1004A200D601ED91FC911197CF0101968D939C930A
:1004B2002081AE01455F5F4FBE016F5F7F4FC40178
:1004C2000E9400004DC0B0E85B124DC0F601808171
:1004D2009181019691838083D701ED91FC911197CF
:1004E200CF0102968D939C93808120C0B0E85B126D
:1004F2003AC0F60180819181019691838083D70170
:10050200ED91FC911197CF0102968D939C934081BE
:10051200518120E030E01EC0B0E85B1224C0F60139
:10052200208131812F5F3F4F318320838B870DC024
:1005320085E28B87D6016D927C921A8219821E8285
:100542001D828FEF9FEF9C838B8321E030E0AE0111
:10055200455F5F4FBE016F5F7F4FC4010E94270856
:100562008A0D9B1D07C0F6018081918101969183BE
:0C0572008083C5012E96EFE00C94350943
:10057E00AFE0B0E0E5ECF2E00C9416091C016B0163
:10058E005A8349832B83FB018281938184809580DA
:10059E0000811181A680B78097FD02C00D7F02C039
:1005AE0081E090E0E981FA81408051806280738021
:1005BE009801207133273D832C83740104FF08C0FA
:1005CE00411451046104710419F032E0E31AF10888
:1005DE00F801E870FF27FF83EE8303FF03C0F1E00D
:1005EE00EF1AF108F6010084F185E02D3197FF87AF
:1005FE00EE87EA0DFB1D10829C012E193F093987EB
:10060E002887C801827099279B878A87EB818E2F56
:10061E00EE0F990B9C01215431093D872C872E85B5
:10062E003F852230310530F48C819D81892B09F074
:10063E0042C05CC0411451046104710461F18E85A5
:10064E009F8501979F878E87C2018F7099278A3069
:10065E00910514F4C09602C0895A9F4FEC85FD8512
:10066E007A9748F49C012062215631092A313105CE
:10067E0010F40E94B509EE85FF85EA0DFB1D8083FF
:10068E00F1E0EF1AF10884E076946794579447945A
:10069E008A95D1F7C4CF888599858E0D9F1D181622
:1006AE0019066CF21E141F040CF0BECFEA85FB85F2
:1006BE00EF2B29F6B9CFE981FA8180819181A28150
:1006CE00B381892B8A2B8B2B89F0EE85FF85EA0D62
:1006DE00FB1D31972B8120838E859F8502979F87E7
:1006EE008E87FC01EA0DFB1D80E38083EE81FF8186
:1006FE00EF2B59F02E853F85215031093F872E87EC
:10070E00F901EA0DFB1D80E28083F60140855185DB
:10071E00415051092E853F85421B530BB9016A0D7D
:10072E007B1D9401C1010E9431079C01F101808162
:10073E00918190FF06C0F601828193818217930703
:0C074E000CF4C9012F96E2E10C94320972
:10075A00AF92BF92CF92DF92EF92FF920F931F93C5
:10076A00CF93DF93EC018B010E94CD09E82EF92E7D
:10077A00C00FD11FDF93CF9388E891E09F938F93A7
:10078A00FF92EF920E947E0940E06E2D7F2D88EC49
:10079A0090E00E946A071F930F938CE891E09F9361
:1007AA008F93FF92EF920E947E0940E06E2D7F2D7B
:1007BA0088EC90E00E946A078E016E01E0E1CE0E9D
:1007CA00D11C8DB79EB70C960FB6F8949EBF0FBE7C
:1007DA008DBF0F2EF6E9AF2EF1E0BF2EF02D8991D5
:1007EA001F928F93BF92AF92FF92EF920E947E095F
:1007FA0040E06E2D7F2D88EC90E00E946A070F90F2
:10080A000F900F900F900F900F90CC16DD0639F7CE
:10081A00F80161918F0180EE860F803608F06EE252
:10082A0088EC90E00E949F070C151D0589F76DE082
:10083A0088EC90E00E949F076AE088EC90E00E94B2
:10084A009F07DF91CF911F910F91FF90EF90DF905B
:08085A00CF90BF90AF9008950C
:10086200A2E0B0E0E7E3F4E00C9416093C016B016E
:10087200FB0122813381A480B580808191819A839A
:10088200898386809780FA0120803180428053805C
:10089200B201A10157FE07C044275527BA014219E8
:1008A20053096409750937FD03C08D7F9A838983D3
:1008B200950157FC05C0898182FD02C083FF02C0F9
:1008C20021503109CE0101967C010AE010E0C601F7
:1008D2000E940B0557FC03C0298122FF0AC0019721
:1008E200F401E80FF91F57FC02C02BE209C02DE208
:1008F20007C023FF06C00197F401E80FF91F20E2A9
:10090200208309811A81F6014085518541505109A0
:10091200481B590BB401680F791F9501C3010E944E
:1009220031079C01F3018081918190FF06C0F6019D
:1009320082819381821793070CF4C9012296E2E126
:040942000C943209D6
:10094600CF93DF93DC01F90168387105F1F05CF4AF
:100956006138710561F164387105A1F1603871057E
:1009660009F051C02FC0603C710509F441C0603FD9
:100976007105F1F1603A710509F045C0C081D18178
:10098600CE0102969183808325C0C081D181CE019C
:10099600029691838083452B39F04881042E000C02
:1009A600550B660B770B1CC0488150E029C0C081EF
:1009B600D181CE01049691838083488159816A81D1
:1009C6007B810EC0C081D181CE0102969183808346
:1009D600452BA1F048815981052E000C660B770B3B
:1009E6004D935D936D937C93139781E090E00DC0DA
:1009F600C081D181CE01029691838083488159813D
:100A060060E070E0EDCF80E090E0DF91CF91089557
:100A1600A0E0B0E0E1E1F5E00C941809DC01280162
:100A26001696AD90BC901797F7018081918112962A
:100A3600ED91FC9113971896CD91DC91199721971A
:100A4600F7FF02C0E1E0F0E0CA0DDB1D1882690184
:100A5600A1E0B0E08F01021B130B4C01F2E08F22E4
:100A66009924052C000C66087708CE018A199B0983
:100A7600CA15DB0519F1411551056105710589F0A6
:100A8600CB01BA01A30192010E947908CA01A62FDF
:100A9600B72F605D6A9341E0C41AD108A901BC0171
:100AA600E4CF98012C0D3D1D121613064CF31C14B1
:100AB6001D0434F48114910419F702C080E090E01B
:100AC600AB2B31F4F701208131812F7E31832083D6
:0A0AD600CDB7DEB7E0E10C9434095F
:100AE00000E021E040E866E270E08CEB91E00E94DB
:100AF0009E0940E855E260E070E088EC90E00E94DA
:100B0000FB070E94CD09EC0182E1EDE9F1E0DE0195
:100B100001900D928A95E1F741E0BE0188EC90E0EA
:100B20000E946A074FE0BE0182E791E00E949B08A5
:100B300041E0BE0188EC90E00E946A0760E270E04C
:100B400082E591E00E94510860E08CEB91E00E9408
:100B50004D092FEF80E792E0215080409040E1F76F
:100B600000C0000061E08CEB91E00E944D092FEF86
:100B700088EF95E1215080409040E1F700C00000EF
:100B800065E588EC90E00E949F072FEF89E698E1E9
:0E0B9000215080409040E1F700C00000D5CF1A
:100B9E00A2E0B0E0E5EDF5E00C941A094C016B0112
:100BAE00FB012281338164807580808191819A83DB
:100BBE008983A680B78037FD03C08D7F9A83898392
:100BCE00FA014081518162817381CE0101967C01CF
:100BDE0008E010E09301C6010E940B05298124FF55
:100BEE0006C00197F501E80FF91F20E32083298144
:100BFE0023FF06C00197F501E80FF91F20E22083BD
:100C0E0009811A81F6014085518541505109481BD1
:100C1E00590BB501680F791F9301C4010E9431076A
:100C2E009C01F4018081918190FF06C0F6018281C2
:100C3E009381821793070CF4C9012296EEE00C946F
:020C4E00360965
:100C50000F931F93CF93DF93DB01109719F48FEF5E
:100C60009FEF3DC02D913C91119730FF25C0169606
:100C70004D915C91179714962D913C9115974217C1
:100C8000530778F41296ED91FC9113978083129696
:100C90002D913C9113972F5F3F4F13963C932E93CA
:100CA000129716962D913C9117972F5F3F4F1796ED
:100CB0003C932E93169713C01C96ED91FC911D97B3
:100CC000309769F2EB01092F182F0995892B39F616
:100CD0008E819F8101969F838E83812F902FDF913C
:080CE000CF911F910F910895BF
:100CE800A2E0B0E0EAE7F6E00C941A095C016B01B7
:100CF800FB012281338184809580808191819A8350
:100D080089836680778037FD03C08D7F9A838983C6
:100D1800FA014081518162817381CE0101967C0183
:100D28000AE010E09401C6010E940B0509811A81AE
:100D3800F6014085518541505109481B590BB301B3
:100D4800680F791F9401C5010E9431079C01F501C4
:100D58008081918190FF06C0F6018281938182177C
:0E0D680093070CF4C9012296EEE00C943609B4
:100D7600A2E8B0E0E1ECF6E00C941C095C014A0143
:100D8600CF57DF4F79836883C158D040C12CD12C0F
:100D9600CF57DF4FE881F981C158D0408081882341
:100DA600E9F07401860120E830E0AE014F5F5F4F45
:100DB600BE016F577F4FC5010E94C1008C0D9D1D5E
:100DC6008C159D054CF48FE490E09093010180937F
:100DD60000018FEF9FEF03C06C01DACFC601CE573B
:080DE600DF4FECE00C9438092A
:100DEE00A0E1B0E0EDEFF6E00C942209FB01BA01B0
:100DFE00AE014F5F5F4F7A0140E1D7011D924A95D8
:100E0E00E9F742E051E05A8349839C838B83F7FFD5
:100E1E0009C08FE490E090930101809300018FEF61
:100E2E009FEF14C0A9018C013197FE83ED83C7019A
:100E3E000E9466094F8158852D813E8142175307C6
:100E4E0008F49A01F801E20FF31F10826096E6E0B3
:040E5E000C943E09A9
:100E6200A0E0B0E0E7E3F7E00C941C096C015B0141
:100E72007A01E901480181E08822992400FD03C03A
:100E82004217530750F0A701B501C6010E94F908A5
:100E9200EC16FD0610F0C70117C08E010E191F09CE
:100EA2000115110541F0B60180E290E00E9428068A
:100EB20001501109F5CF8114910429F4A701B5015C
:100EC200C6010E94F908CE01CDB7DEB7ECE00C9462
:020ED2003809DD
:100ED400CF92DF92EF92FF920F931F93CF93DF9302
:100EE4008C016B01411110C0FB0160816623E1F0AC
:100EF400C0E0C8010E949F07CF5FF601EC0FF11D0F
:100F040060816111F6CF10C0EB014150E42EF12C49
:100F1400FFEFEF1AFF0AE60EF71E6991C8010E945F
:100F24009F07EC16FD06C9F7DF91CF911F910F9132
:0A0F3400FF90EF90DF90CF9008953A
:100F3E000F931F93CF93DF938C01D62FF801C081AF
:100F4E0060E08CEB91E00E944D09FFEF29E688E10D
:100F5E00F15020408040E1F700C0000061E08CEBD2
:100F6E0091E00E944D099FEFE9E6F8E19150E040D3
:100F7E00F040E1F700C00000C5FFE0CFF801D683D6
:0C0F8E0080E0DF91CF911F910F9108953A
:100F9A00DC01ED91FC91119780818A3221F080E089
:100FAA0090E03AE00EC03196ED93FC93DB01ED91AF
:100FBA00FC911197CF0102968D939C938081918128
:100FCA000895ED91FC911197208120532A3068F4FD
:100FDA00389FA001399F500D1124CA01820F911D1B
:0C0FEA0031961196FC93EE93ECCF089525
:100FF600CF93DF93EC018981877E898389818F7105
:101006008983DB01CA01880F991FAA1FBB1F880F9E
:10101600991FAA1FBB1F9C01AD01220F331F441F3E
:10102600551F60E074E284EF90E00E947908215039
:1010360031098881826088833D832C831A8288E106
:081046008983DF91CF91089529
:10104E00A0E0B0E0EDE2F8E00C941E097C01FB019B
:10105E00EA01C901A280B380C480D58000811181CC
:10106E00209711F4CFEAD1E0009719F4CE010E9437
:10107E009009B7FC04C0A816B90608F4C50196017C
:10108E00AC01BE01C7010E943107CDB7DEB7EAE061
:04109E000C943A096B
:1010A200EF92FF920F931F93CF93DF937C018B01FB
:1010B2000E94CD09EC0140E0BC0182E391E00E9474
:1010C2009B0840E0BE0188EC90E00E946A07C0E005
:1010D200D0E0BE01C7010E94AD036096C017D107E0
:1010E200C0F3DF91CF911F910F91FF90EF90089580
:1010F200A1E21A2EAA1BBB1BFD010DC0AA1FBB1F1A
:10110200EE1FFF1FA217B307E407F50720F0A21B8B
:10111200B30BE40BF50B661F771F881F991F1A94F8
:1011220069F760957095809590959B01AC01BD0122
:04113200CF0108954C
:1011360041110EC0242F30E0FC01E20FF31FE491B1
:10114600DB01A20FB31FEC934F5FE111F3CF0EC08B
:10115600FC01DB018FEF840F90E00196680F791F89
:1011660084918D933196A617B707D1F7842F0895EA
:10117600CF93DF93EC0190E0E92FF0E0EE0FFF1F35
:10118600EE58FE4F8081811102C081810EC0A88178
:10119600B9812C91821305C091811196B983A883D8
:1011A60001C09F5F9B3040F3892FDF91CF91089557
:1011B600FC01718360834283222341F0DB01129696
:1011C6008C911297842B12968C9309C0DB01129690
:1011D6008C911297942F9095892312968C93019057
:0C11E600F081E02D8181482B41830895A9
:1011F200A0E0B0E0EFEFF8E00C9420096C01EB0105
:101202008A017B01E40EF51ECE15DF0541F08991BE
:10121200B601082E000C990B0E942806F5CFC801D2
:0A122200CDB7DEB7E8E00C943C09FC
:10122C002F923F924F925F926F927F928F929F92EA
:10123C00AF92BF92CF92DF92EF92FF920F931F93D8
:10124C00CF93DF93CDB7DEB7CA1BDB0B0FB6F89489
:08125C00DEBF0FBECDBF0994F7
:101264002A88398848885F846E847D848C849B8432
:10127400AA84B984C884DF80EE80FD800C811B8140
:10128400AA81B981CE0FD11D0FB6F894DEBF0FBE6F
:06129400CDBFED0108953D
:10129A00FC01838186130BC0A081B18112969C91B7
:1012AA00129782818095892312968C930895A08142
:1012BA00B18112969C9112978281892B12968C93F6
:0212CA00089585
:1012CC00A2E0B0E0ECE6F9E00C9424098C015A831E
:1012DC004983AE014F5F5F4F0E94BB06F80120812E
:1012EC0024FF02C08FEF9FEF2296E4E00C9440099C
:1012FC00A0E0B0E0E4E8F9E00C942609AE01475F09
:10130C005F4F6F8178858D819E810E94C609E2E0D6
:04131C000C944209E2
:10132000FC01AF014F5F5F4F2081222311F0FA01D2
:0C133000F8CF9F01281B390BC90108955C
:10133C000F93CF93DF93EC0120270E94DB080B83E4
:08134C00DF91CF910F9108958C
:10135400EC010E94D5090E94D409CE010E94D6094D
:06136400CE010E94D20937
:10136A009C01215631092A31310510F48F759927CC
:02137A000895D4
:10137C009C01215431092A31310508F48062089509
:0E138C009A01AB016FEF7FE70E94F70608950C
:06139A0082E091E00895DD
:0413A0000C940000A9
:0413A4000E9497000C
:0213A8000895A6
:0213AA000895A4
:0213AC000895A2
:1013AE00416C6963652C20426F622C204368617228
:1013BE006C69652C2044617669642C204576650045
:1013CE0068076C094C836A9074A07AC000806888A4
:0613DE0000846C82008116
:1013E40025702000307825342E34582020002532F2
:0513F4002E325820001C
:1013F90048656C6C6F205541525420576F726C646C
:021409002100C0
:07140B00286E756C6C2900CE
:06141200286E696C290040
:00000001FF
