:100000000C9469000C9407010C9407010C940701EF
:100010000C9407010C9407010C9407010C94070140
:100020000C9407010C9407010C9407010C94070130
:100030000C9407010C9407010C9407010C94070120
:100040000C9407010C9407010C9407010C94070110
:100050000C9407010C9407010C9407010C94070100
:100060000C9407010C9407010C9407010C940701F0
:100070000C9407010C9407010C9407010C940701E0
:100080000C9407010C9407010C9407010C940701D0
:100090000C9407010C9407010C9407010C940701C0
:1000A0000C9407010C9407010C9407010C940701B0
:1000B0000C9407010C9407010C9407010C940701A0
:1000C0000C9407010C9407010C9407010100010432
:1000D000800011241FBECFEFD8E0DEBFCDBFECEC17
:1000E000F0E040E017C0B591A591359125910591BB
:1000F00007FD0CC095918591EF01F92FE82F059030
:100100000D92A217B307D9F7FE0104C01D92A217E2
:10011000B307E1F7E13DF40731F70E9493000C9437
:06012000FC00F894FFCF83
:1001260000E021E040E866E270E080E091E00E94B5
:10013600F00060E080E091E00E94D7002FEF80E7BA
:1001460092E0215080409040E1F700C0000061E05D
:1001560080E091E00E94D7002FEF88EF95E12150D3
:0C01660080409040E1F700C00000E3CFB3
:10017200FC01718360834283222341F0DB011296EA
:100182008C911297842B12968C9309C0DB011296E4
:100192008C911297942F9095892312968C930190AB
:0C01A200F081E02D8181482B41830895FD
:1001AE00FC01838186130BC0A081B18112969C91B4
:1001BE00129782818095892312968C930895A0813F
:1001CE00B18112969C9112978281892B12968C93F3
:0201DE00089582
:1001E0000F93CF93DF93EC0120270E94B9000B837C
:0801F000DF91CF910F910895FA
:1001F800EC010E940C010E940B01CE010E940D012E
:06020800CE010E94090175
:04020E000C9400004C
:040212000E949100B5
:02021600089549
:02021800089547
:02021A00089545
:00000001FF
