:100000000C9466000C9494000C9494000C9494004E
:100010000C9494000C9494000C9494000C94940010
:100020000C9494000C9494000C9494000C94940000
:100030000C9494000C9494000C9494000C949400F0
:100040000C9494000C9494000C9494000C949400E0
:100050000C9494000C9494000C9494000C949400D0
:100060000C9494000C9494000C9494000C949400C0
:100070000C9494000C9494000C9494000C949400B0
:100080000C9494000C9494000C9494000C949400A0
:100090000C9494000C9494000C9494000C94940090
:1000A0000C9494000C9494000C9494000C94940080
:1000B0000C9494000C9494000C9494000C94940070
:1000C0000C9494000C9494000C94940011241FBE82
:1000D000CFEFD8E0DEBFCDBF0E9472000C94890044
:0400E000F894FFCFC2
:1000E400479A3F9A47982FEF83ED90E32150804041
:1000F4009040E1F700C00000479A2FEF83ED90E3B2
:0E010400215080409040E1F700C00000EBCF9A
:10011200EC010E9499000E949800CE010E949A0070
:06012200CE010E949600D0
:040128000C94000033
:04012C000E947000BD
:02013000089530
:0201320008952E
:0201340008952C
:00000001FF
