:100000000C9466000C9445010C9445010C94450138
:100010000C9445010C9445010C9445010C94450148
:100020000C9445010C9445010C9445010C94450138
:100030000C9445010C9445010C9445010C94450128
:100040000C9445010C9445010C9445010C94450118
:100050000C9445010C9445010C9445010C94450108
:100060000C9445010C9445010C9445010C944501F8
:100070000C9445010C9445010C9445010C944501E8
:100080000C9445010C9445010C9445010C944501D8
:100090000C9445010C9445010C9445010C944501C8
:1000A0000C9445010C9445010C9445010C944501B8
:1000B0000C9445010C9445010C9445010C944501A8
:1000C0000C9445010C9445010C94450111241FBE6C
:1000D000CFEFD8E0DEBFCDBFECECF0E040E017C0E2
:1000E000B591A59135912591059107FD0CC095918C
:1000F0008591EF01F92FE82F05900D92A217B30714
:10010000D9F7FE0104C01D92A217B307E1F7EC3C3A
:10011000F40731F70E9490000C942C01F894FFCF63
:10012000CF93DF9300D000D0CDB7DEB7479A3F9A88
:1001300068E083E290E00E943F016C9A749A00E0CC
:1001400021E040E860E270E0CE0101960E94DF000D
:100150004798479A40E068E083E290E00E944201BD
:1001600041E068E083E290E00E9442017498749A52
:1001700060E0CE0101960E94110161E0CE0101967E
:060180000E941101E5CF11
:10018600FC01718360834283DB0111968C91119788
:10019600842B11968C93222339F00190F081E02D67
:1001A6008281482B428308950190F081E02D82815F
:0801B60040954823428308959F
:1001BE000F931F93CF93DF93EC01122F0E94C30076
:1001CE000B83002339F061E0111160E0CE010E9433
:1001DE00FA0004C0612FCE010E94FA00DF91CF9188
:0601EE001F910F9108951E
:1001F400662351F0DC01ED91FC9111972281129656
:100204008C91822B82830895DC01ED91FC911197EE
:0E021400228112968C91809582238283089518
:10022200FC012381222339F021E0611120E0622FB9
:0C0232000E94FA0008950E94FA0008954E
:10023E00442329F0FC012281622B62830895FC0184
:0A024E002281609562236283089507
:10025800EC010E944A010E944901CE010E944B0113
:06026800CE010E944701D7
:10026E00FC018281862B82838181682B61830895B4
:06027E000E943701089503
:060284000E941F01089515
:04028A000C940000D0
:04028E000E948E003C
:020292000895CD
:020294000895CB
:020296000895C9
:00000001FF
